0000000001100094281944095000000000000HELOO SOLUTIONS                                                                                                                                       000000000000012000401202104012021040120211034
0000000002040120211034200564281944095100000000000JOSE DA SILVA                                                                                                                                         RUA DOS SONHOS                                                                                      
0000000002040120211034200564281944095100000000000JOSE DA SILVA                                                                                                                                         RUA DOS SONHOS                                                                                      
0000000002040120211034200564281944095100000000000JOSE DA SILVA                                                                                                                                         RUA DOS SONHOS                                                                                      
0000000002040120211034200564281944095100000000000JOSE DA SILVA                                                                                                                                         RUA DOS SONHOS                                                                                      
0000000002040120211034200564281944095100000000000JOSE DA SILVA                                                                                                                                         RUA DOS SONHOS                                                                                      
0000000002040120211034200564281944095100000000000JOSE DA SILVA                                                                                                                                         RUA DOS SONHOS                                                                                      
0000000002040120211034200564281944095100000000000JOSE DA SILVA                                                                                                                                         RUA DOS SONHOS                                                                                      
0000000002040120211034200564281944095100000000000JOSE DA SILVA                                                                                                                                         RUA DOS SONHOS                                                                                      
0000000002040120211034200564281944095100000000000JOSE DA SILVA                                                                                                                                         RUA DOS SONHOS                                                                                      
0000000002040120211034200564281944095100000000000JOSE DA SILVA                                                                                                                                         RUA DOS SONHOS                                                                                      
0000000002040120211034200564281944095100000000000JOSE DA SILVA                                                                                                                                         RUA DOS SONHOS                                                                                      
0000000002040120211034200564281944095100000000000JOSE DA SILVA                                                                                                                                         RUA DOS SONHOS                                                                                      
0000000002040120211034200564281944095100000000000JOSE DA SILVA                                                                                                                                         RUA DOS SONHOS                                                                                      
0000000002040120211034200564281944095100000000000JOSE DA SILVA                                                                                                                                         RUA DOS SONHOS                                                                                      
0000000002040120211034200564281944095100000000000JOSE DA SILVA                                                                                                                                         RUA DOS SONHOS                                                                                      
0000000002040120211034200564281944095100000000000JOSE DA SILVA                                                                                                                                         RUA DOS SONHOS                                                                                      
0000000002040120211034200564281944095100000000000JOSE DA SILVA                                                                                                                                         RUA DOS SONHOS                                                                                      
0000000002040120211034200564281944095100000000000JOSE DA SILVA                                                                                                                                         RUA DOS SONHOS                                                                                      
0000000002040120211034200564281944095100000000000JOSE DA SILVA                                                                                                                                         RUA DOS SONHOS                                                                                      
0000000002040120211034200564281944095100000000000JOSE DA SILVA                                                                                                                                         RUA DOS SONHOS                                                                                      
0000000002040120211034200564281944095100000000000JOSE DA SILVA                                                                                                                                         RUA DOS SONHOS                                                                                      
0000000002040120211034200564281944095100000000000JOSE DA SILVA                                                                                                                                         RUA DOS SONHOS                                                                                      
0000000002040120211034200564281944095100000000000JOSE DA SILVA                                                                                                                                         RUA DOS SONHOS                                                                                      
0000000002040120211034200564281944095100000000000JOSE DA SILVA                                                                                                                                         RUA DOS SONHOS                                                                                      
0000000002040120211034200564281944095100000000000JOSE DA SILVA                                                                                                                                         RUA DOS SONHOS                                                                                      
0000000002040120211034200564281944095100000000000JOSE DA SILVA                                                                                                                                         RUA DOS SONHOS                                                                                      
0000000002040120211034200564281944095100000000000JOSE DA SILVA                                                                                                                                         RUA DOS SONHOS                                                                                      
0000000002040120211034200564281944095100000000000JOSE DA SILVA                                                                                                                                         RUA DOS SONHOS                                                                                      
0000000002040120211034200564281944095100000000000JOSE DA SILVA                                                                                                                                         RUA DOS SONHOS                                                                                      
0000000002040120211034200564281944095100000000000JOSE DA SILVA                                                                                                                                         RUA DOS SONHOS                                                                                      
0000000002040120211034200564281944095100000000000JOSE DA SILVA                                                                                                                                         RUA DOS SONHOS                                                                                      
0000000002040120211034200564281944095100000000000JOSE DA SILVA                                                                                                                                         RUA DOS SONHOS                                                                                      
0000000002040120211034200564281944095100000000000JOSE DA SILVA                                                                                                                                         RUA DOS SONHOS                                                                                      
0000000002040120211034200564281944095100000000000JOSE DA SILVA                                                                                                                                         RUA DOS SONHOS                                                                                      
0000000002040120211034200564281944095100000000000JOSE DA SILVA                                                                                                                                         RUA DOS SONHOS                                                                                      
0000000002040120211034200564281944095100000000000JOSE DA SILVA                                                                                                                                         RUA DOS SONHOS                                                                                      
0000000002040120211034200564281944095100000000000JOSE DA SILVA                                                                                                                                         RUA DOS SONHOS                                                                                      
0000000002040120211034200564281944095100000000000JOSE DA SILVA                                                                                                                                         RUA DOS SONHOS                                                                                      
0000000002040120211034200564281944095100000000000JOSE DA SILVA                                                                                                                                         RUA DOS SONHOS                                                                                      
0000000002040120211034200564281944095100000000000JOSE DA SILVA                                                                                                                                         RUA DOS SONHOS                                                                                      
0000000002040120211034200564281944095100000000000JOSE DA SILVA                                                                                                                                         RUA DOS SONHOS                                                                                      
0000000002040120211034200564281944095100000000000JOSE DA SILVA                                                                                                                                         RUA DOS SONHOS                                                                                      
0000000002040120211034200564281944095100000000000JOSE DA SILVA                                                                                                                                         RUA DOS SONHOS                                                                                      
0000000002040120211034200564281944095100000000000JOSE DA SILVA                                                                                                                                         RUA DOS SONHOS                                                                                      
0000000002040120211034200564281944095100000000000JOSE DA SILVA                                                                                                                                         RUA DOS SONHOS                                                                                      
0000000002040120211034200564281944095100000000000JOSE DA SILVA                                                                                                                                         RUA DOS SONHOS                                                                                      
0000000002040120211034200564281944095100000000000JOSE DA SILVA                                                                                                                                         RUA DOS SONHOS                                                                                      
0000000002040120211034200564281944095100000000000JOSE DA SILVA                                                                                                                                         RUA DOS SONHOS                                                                                      
0000000002040120211034200564281944095100000000000JOSE DA SILVA                                                                                                                                         RUA DOS SONHOS                                                                                      
0000000002040120211034200564281944095100000000000JOSE DA SILVA                                                                                                                                         RUA DOS SONHOS                                                                                      
0000000002040120211034200564281944095100000000000JOSE DA SILVA                                                                                                                                         RUA DOS SONHOS                                                                                      
0000000002040120211034200564281944095100000000000JOSE DA SILVA                                                                                                                                         RUA DOS SONHOS                                                                                      
0000000002040120211034200564281944095100000000000JOSE DA SILVA                                                                                                                                         RUA DOS SONHOS                                                                                      
0000000002040120211034200564281944095100000000000JOSE DA SILVA                                                                                                                                         RUA DOS SONHOS                                                                                      
0000000002040120211034200564281944095100000000000JOSE DA SILVA                                                                                                                                         RUA DOS SONHOS                                                                                      
0000000002040120211034200564281944095100000000000JOSE DA SILVA                                                                                                                                         RUA DOS SONHOS                                                                                      
0000000002040120211034200564281944095100000000000JOSE DA SILVA                                                                                                                                         RUA DOS SONHOS                                                                                      
0000000002040120211034200564281944095100000000000JOSE DA SILVA                                                                                                                                         RUA DOS SONHOS                                                                                      
0000000002040120211034200564281944095100000000000JOSE DA SILVA                                                                                                                                         RUA DOS SONHOS                                                                                      
0000000002040120211034200564281944095100000000000JOSE DA SILVA                                                                                                                                         RUA DOS SONHOS                                                                                      
0000000002040120211034200564281944095100000000000JOSE DA SILVA                                                                                                                                         RUA DOS SONHOS                                                                                      
0000000002040120211034200564281944095100000000000JOSE DA SILVA                                                                                                                                         RUA DOS SONHOS                                                                                      
0000000002040120211034200564281944095100000000000JOSE DA SILVA                                                                                                                                         RUA DOS SONHOS                                                                                      
0000000002040120211034200564281944095100000000000JOSE DA SILVA                                                                                                                                         RUA DOS SONHOS                                                                                      
0000000002040120211034200564281944095100000000000JOSE DA SILVA                                                                                                                                         RUA DOS SONHOS                                                                                      
0000000002040120211034200564281944095100000000000JOSE DA SILVA                                                                                                                                         RUA DOS SONHOS                                                                                      
0000000002040120211034200564281944095100000000000JOSE DA SILVA                                                                                                                                         RUA DOS SONHOS                                                                                      
0000000002040120211034200564281944095100000000000JOSE DA SILVA                                                                                                                                         RUA DOS SONHOS                                                                                      
0000000002040120211034200564281944095100000000000JOSE DA SILVA                                                                                                                                         RUA DOS SONHOS                                                                                      
0000000002040120211034200564281944095100000000000JOSE DA SILVA                                                                                                                                         RUA DOS SONHOS                                                                                      
0000000002040120211034200564281944095100000000000JOSE DA SILVA                                                                                                                                         RUA DOS SONHOS                                                                                      
0000000002040120211034200564281944095100000000000JOSE DA SILVA                                                                                                                                         RUA DOS SONHOS                                                                                      
0000000002040120211034200564281944095100000000000JOSE DA SILVA                                                                                                                                         RUA DOS SONHOS                                                                                      
0000000002040120211034200564281944095100000000000JOSE DA SILVA                                                                                                                                         RUA DOS SONHOS                                                                                      
0000000002040120211034200564281944095100000000000JOSE DA SILVA                                                                                                                                         RUA DOS SONHOS                                                                                      
0000000002040120211034200564281944095100000000000JOSE DA SILVA                                                                                                                                         RUA DOS SONHOS                                                                                      
0000000002040120211034200564281944095100000000000JOSE DA SILVA                                                                                                                                         RUA DOS SONHOS                                                                                      
0000000002040120211034200564281944095100000000000JOSE DA SILVA                                                                                                                                         RUA DOS SONHOS                                                                                      
0000000002040120211034200564281944095100000000000JOSE DA SILVA                                                                                                                                         RUA DOS SONHOS                                                                                      
0000000002040120211034200564281944095100000000000JOSE DA SILVA                                                                                                                                         RUA DOS SONHOS                                                                                      
0000000002040120211034200564281944095100000000000JOSE DA SILVA                                                                                                                                         RUA DOS SONHOS                                                                                      
0000000002040120211034200564281944095100000000000JOSE DA SILVA                                                                                                                                         RUA DOS SONHOS                                                                                      
0000000002040120211034200564281944095100000000000JOSE DA SILVA                                                                                                                                         RUA DOS SONHOS                                                                                      
0000000002040120211034200564281944095100000000000JOSE DA SILVA                                                                                                                                         RUA DOS SONHOS                                                                                      
0000000002040120211034200564281944095100000000000JOSE DA SILVA                                                                                                                                         RUA DOS SONHOS                                                                                      
0000000002040120211034200564281944095100000000000JOSE DA SILVA                                                                                                                                         RUA DOS SONHOS                                                                                      
0000000002040120211034200564281944095100000000000JOSE DA SILVA                                                                                                                                         RUA DOS SONHOS                                                                                      
0000000002040120211034200564281944095100000000000JOSE DA SILVA                                                                                                                                         RUA DOS SONHOS                                                                                      
0000000002040120211034200564281944095100000000000JOSE DA SILVA                                                                                                                                         RUA DOS SONHOS                                                                                      
0000000002040120211034200564281944095100000000000JOSE DA SILVA                                                                                                                                         RUA DOS SONHOS                                                                                      
0000000002040120211034200564281944095100000000000JOSE DA SILVA                                                                                                                                         RUA DOS SONHOS                                                                                      
0000000002040120211034200564281944095100000000000JOSE DA SILVA                                                                                                                                         RUA DOS SONHOS                                                                                      
0000000002040120211034200564281944095100000000000JOSE DA SILVA                                                                                                                                         RUA DOS SONHOS                                                                                      
0000000002040120211034200564281944095100000000000JOSE DA SILVA                                                                                                                                         RUA DOS SONHOS                                                                                      
0000000002040120211034200564281944095100000000000JOSE DA SILVA                                                                                                                                         RUA DOS SONHOS                                                                                      
0000000002040120211034200564281944095100000000000JOSE DA SILVA                                                                                                                                         RUA DOS SONHOS                                                                                      
0000000002040120211034200564281944095100000000000JOSE DA SILVA                                                                                                                                         RUA DOS SONHOS                                                                                      
0000000002040120211034200564281944095100000000000JOSE DA SILVA                                                                                                                                         RUA DOS SONHOS                                                                                      
0000000002040120211034200564281944095100000000000JOSE DA SILVA                                                                                                                                         RUA DOS SONHOS                                                                                      
0000000002040120211034200564281944095100000000000JOSE DA SILVA                                                                                                                                         RUA DOS SONHOS                                                                                      
0000000002040120211034200564281944095100000000000JOSE DA SILVA                                                                                                                                         RUA DOS SONHOS                                                                                      
0000000002040120211034200564281944095100000000000JOSE DA SILVA                                                                                                                                         RUA DOS SONHOS                                                                                      
0000000002040120211034200564281944095100000000000JOSE DA SILVA                                                                                                                                         RUA DOS SONHOS                                                                                      
0000000002040120211034200564281944095100000000000JOSE DA SILVA                                                                                                                                         RUA DOS SONHOS                                                                                      
0000000002040120211034200564281944095100000000000JOSE DA SILVA                                                                                                                                         RUA DOS SONHOS                                                                                      
0000000002040120211034200564281944095100000000000JOSE DA SILVA                                                                                                                                         RUA DOS SONHOS                                                                                      
0000000002040120211034200564281944095100000000000JOSE DA SILVA                                                                                                                                         RUA DOS SONHOS                                                                                      
0000000002040120211034200564281944095100000000000JOSE DA SILVA                                                                                                                                         RUA DOS SONHOS                                                                                      
0000000002040120211034200564281944095100000000000JOSE DA SILVA                                                                                                                                         RUA DOS SONHOS                                                                                      
0000000002040120211034200564281944095100000000000JOSE DA SILVA                                                                                                                                         RUA DOS SONHOS                                                                                      
0000000002040120211034200564281944095100000000000JOSE DA SILVA                                                                                                                                         RUA DOS SONHOS                                                                                      
0000000002040120211034200564281944095100000000000JOSE DA SILVA                                                                                                                                         RUA DOS SONHOS                                                                                      
0000000002040120211034200564281944095100000000000JOSE DA SILVA                                                                                                                                         RUA DOS SONHOS                                                                                      
0000000002040120211034200564281944095100000000000JOSE DA SILVA                                                                                                                                         RUA DOS SONHOS                                                                                      
0000000002040120211034200564281944095100000000000JOSE DA SILVA                                                                                                                                         RUA DOS SONHOS                                                                                      
0000000002040120211034200564281944095100000000000JOSE DA SILVA                                                                                                                                         RUA DOS SONHOS                                                                                      
0000000002040120211034200564281944095100000000000JOSE DA SILVA                                                                                                                                         RUA DOS SONHOS                                                                                      
0000000002040120211034200564281944095100000000000JOSE DA SILVA                                                                                                                                         RUA DOS SONHOS                                                                                      
0000000002040120211034200564281944095100000000000JOSE DA SILVA                                                                                                                                         RUA DOS SONHOS                                                                                      
0000000002040120211034200564281944095100000000000JOSE DA SILVA                                                                                                                                         RUA DOS SONHOS                                                                                      
0000000002040120211034200564281944095100000000000JOSE DA SILVA                                                                                                                                         RUA DOS SONHOS                                                                                      
0000000002040120211034200564281944095100000000000JOSE DA SILVA                                                                                                                                         RUA DOS SONHOS                                                                                      
0000000002040120211034200564281944095100000000000JOSE DA SILVA                                                                                                                                         RUA DOS SONHOS                                                                                      
0000000002040120211034200564281944095100000000000JOSE DA SILVA                                                                                                                                         RUA DOS SONHOS                                                                                      
0000000002040120211034200564281944095100000000000JOSE DA SILVA                                                                                                                                         RUA DOS SONHOS                                                                                      
0000000002040120211034200564281944095100000000000JOSE DA SILVA                                                                                                                                         RUA DOS SONHOS                                                                                      
0000000002040120211034200564281944095100000000000JOSE DA SILVA                                                                                                                                         RUA DOS SONHOS                                                                                      
0000000002040120211034200564281944095100000000000JOSE DA SILVA                                                                                                                                         RUA DOS SONHOS                                                                                      
0000000002040120211034200564281944095100000000000JOSE DA SILVA                                                                                                                                         RUA DOS SONHOS                                                                                      
0000000002040120211034200564281944095100000000000JOSE DA SILVA                                                                                                                                         RUA DOS SONHOS                                                                                      
0000000002040120211034200564281944095100000000000JOSE DA SILVA                                                                                                                                         RUA DOS SONHOS                                                                                      
0000000002040120211034200564281944095100000000000JOSE DA SILVA                                                                                                                                         RUA DOS SONHOS                                                                                      
0000000002040120211034200564281944095100000000000JOSE DA SILVA                                                                                                                                         RUA DOS SONHOS                                                                                      
0000000002040120211034200564281944095100000000000JOSE DA SILVA                                                                                                                                         RUA DOS SONHOS                                                                                      
0000000002040120211034200564281944095100000000000JOSE DA SILVA                                                                                                                                         RUA DOS SONHOS                                                                                      
0000000002040120211034200564281944095100000000000JOSE DA SILVA                                                                                                                                         RUA DOS SONHOS                                                                                      
0000000002040120211034200564281944095100000000000JOSE DA SILVA                                                                                                                                         RUA DOS SONHOS                                                                                      
0000000002040120211034200564281944095100000000000JOSE DA SILVA                                                                                                                                         RUA DOS SONHOS                                                                                      
0000000002040120211034200564281944095100000000000JOSE DA SILVA                                                                                                                                         RUA DOS SONHOS                                                                                      
0000000002040120211034200564281944095100000000000JOSE DA SILVA                                                                                                                                         RUA DOS SONHOS                                                                                      
0000000002040120211034200564281944095100000000000JOSE DA SILVA                                                                                                                                         RUA DOS SONHOS                                                                                      
0000000002040120211034200564281944095100000000000JOSE DA SILVA                                                                                                                                         RUA DOS SONHOS                                                                                      
0000000002040120211034200564281944095100000000000JOSE DA SILVA                                                                                                                                         RUA DOS SONHOS                                                                                      
0000000002040120211034200564281944095100000000000JOSE DA SILVA                                                                                                                                         RUA DOS SONHOS                                                                                      
0000000002040120211034200564281944095100000000000JOSE DA SILVA                                                                                                                                         RUA DOS SONHOS                                                                                      
0000000002040120211034200564281944095100000000000JOSE DA SILVA                                                                                                                                         RUA DOS SONHOS                                                                                      
0000000002040120211034200564281944095100000000000JOSE DA SILVA                                                                                                                                         RUA DOS SONHOS                                                                                      
0000000002040120211034200564281944095100000000000JOSE DA SILVA                                                                                                                                         RUA DOS SONHOS                                                                                      
0000000002040120211034200564281944095100000000000JOSE DA SILVA                                                                                                                                         RUA DOS SONHOS                                                                                      
0000000002040120211034200564281944095100000000000JOSE DA SILVA                                                                                                                                         RUA DOS SONHOS                                                                                      
0000000002040120211034200564281944095100000000000JOSE DA SILVA                                                                                                                                         RUA DOS SONHOS                                                                                      
0000000002040120211034200564281944095100000000000JOSE DA SILVA                                                                                                                                         RUA DOS SONHOS                                                                                      
0000000002040120211034200564281944095100000000000JOSE DA SILVA                                                                                                                                         RUA DOS SONHOS                                                                                      
0000000002040120211034200564281944095100000000000JOSE DA SILVA                                                                                                                                         RUA DOS SONHOS                                                                                      
0000000002040120211034200564281944095100000000000JOSE DA SILVA                                                                                                                                         RUA DOS SONHOS                                                                                      
0000000002040120211034200564281944095100000000000JOSE DA SILVA                                                                                                                                         RUA DOS SONHOS                                                                                      
0000000002040120211034200564281944095100000000000JOSE DA SILVA                                                                                                                                         RUA DOS SONHOS                                                                                      
0000000002040120211034200564281944095100000000000JOSE DA SILVA                                                                                                                                         RUA DOS SONHOS                                                                                      
0000000002040120211034200564281944095100000000000JOSE DA SILVA                                                                                                                                         RUA DOS SONHOS                                                                                      
0000000002040120211034200564281944095100000000000JOSE DA SILVA                                                                                                                                         RUA DOS SONHOS                                                                                      
0000000002040120211034200564281944095100000000000JOSE DA SILVA                                                                                                                                         RUA DOS SONHOS                                                                                      
0000000002040120211034200564281944095100000000000JOSE DA SILVA                                                                                                                                         RUA DOS SONHOS                                                                                      
0000000002040120211034200564281944095100000000000JOSE DA SILVA                                                                                                                                         RUA DOS SONHOS                                                                                      
0000000002040120211034200564281944095100000000000JOSE DA SILVA                                                                                                                                         RUA DOS SONHOS                                                                                      
0000000002040120211034200564281944095100000000000JOSE DA SILVA                                                                                                                                         RUA DOS SONHOS                                                                                      
0000000002040120211034200564281944095100000000000JOSE DA SILVA                                                                                                                                         RUA DOS SONHOS                                                                                      
0000000002040120211034200564281944095100000000000JOSE DA SILVA                                                                                                                                         RUA DOS SONHOS                                                                                      
0000000002040120211034200564281944095100000000000JOSE DA SILVA                                                                                                                                         RUA DOS SONHOS                                                                                      
0000000002040120211034200564281944095100000000000JOSE DA SILVA                                                                                                                                         RUA DOS SONHOS                                                                                      
0000000002040120211034200564281944095100000000000JOSE DA SILVA                                                                                                                                         RUA DOS SONHOS                                                                                      
0000000002040120211034200564281944095100000000000JOSE DA SILVA                                                                                                                                         RUA DOS SONHOS                                                                                      
0000000002040120211034200564281944095100000000000JOSE DA SILVA                                                                                                                                         RUA DOS SONHOS                                                                                      
0000000002040120211034200564281944095100000000000JOSE DA SILVA                                                                                                                                         RUA DOS SONHOS                                                                                      
0000000002040120211034200564281944095100000000000JOSE DA SILVA                                                                                                                                         RUA DOS SONHOS                                                                                      
0000000002040120211034200564281944095100000000000JOSE DA SILVA                                                                                                                                         RUA DOS SONHOS                                                                                      
0000000002040120211034200564281944095100000000000JOSE DA SILVA                                                                                                                                         RUA DOS SONHOS                                                                                      
0000000002040120211034200564281944095100000000000JOSE DA SILVA                                                                                                                                         RUA DOS SONHOS                                                                                      
0000000002040120211034200564281944095100000000000JOSE DA SILVA                                                                                                                                         RUA DOS SONHOS                                                                                      
0000000002040120211034200564281944095100000000000JOSE DA SILVA                                                                                                                                         RUA DOS SONHOS                                                                                      
0000000002040120211034200564281944095100000000000JOSE DA SILVA                                                                                                                                         RUA DOS SONHOS                                                                                      
0000000002040120211034200564281944095100000000000JOSE DA SILVA                                                                                                                                         RUA DOS SONHOS                                                                                      
0000000002040120211034200564281944095100000000000JOSE DA SILVA                                                                                                                                         RUA DOS SONHOS                                                                                      
0000000002040120211034200564281944095100000000000JOSE DA SILVA                                                                                                                                         RUA DOS SONHOS                                                                                      
0000000002040120211034200564281944095100000000000JOSE DA SILVA                                                                                                                                         RUA DOS SONHOS                                                                                      
0000000002040120211034200564281944095100000000000JOSE DA SILVA                                                                                                                                         RUA DOS SONHOS                                                                                      
0000000002040120211034200564281944095100000000000JOSE DA SILVA                                                                                                                                         RUA DOS SONHOS                                                                                      
0000000002040120211034200564281944095100000000000JOSE DA SILVA                                                                                                                                         RUA DOS SONHOS                                                                                      
0000000002040120211034200564281944095100000000000JOSE DA SILVA                                                                                                                                         RUA DOS SONHOS                                                                                      
0000000002040120211034200564281944095100000000000JOSE DA SILVA                                                                                                                                         RUA DOS SONHOS                                                                                      
0000000002040120211034200564281944095100000000000JOSE DA SILVA                                                                                                                                         RUA DOS SONHOS                                                                                      
0000000002040120211034200564281944095100000000000JOSE DA SILVA                                                                                                                                         RUA DOS SONHOS                                                                                      
0000000002040120211034200564281944095100000000000JOSE DA SILVA                                                                                                                                         RUA DOS SONHOS                                                                                      
0000000002040120211034200564281944095100000000000JOSE DA SILVA                                                                                                                                         RUA DOS SONHOS                                                                                      
0000000002040120211034200564281944095100000000000JOSE DA SILVA                                                                                                                                         RUA DOS SONHOS                                                                                      
0000000002040120211034200564281944095100000000000JOSE DA SILVA                                                                                                                                         RUA DOS SONHOS                                                                                      
0000000002040120211034200564281944095100000000000JOSE DA SILVA                                                                                                                                         RUA DOS SONHOS                                                                                      
0000000002040120211034200564281944095100000000000JOSE DA SILVA                                                                                                                                         RUA DOS SONHOS                                                                                      
0000000002040120211034200564281944095100000000000JOSE DA SILVA                                                                                                                                         RUA DOS SONHOS                                                                                      
0000000002040120211034200564281944095100000000000JOSE DA SILVA                                                                                                                                         RUA DOS SONHOS                                                                                      
0000000002040120211034200564281944095100000000000JOSE DA SILVA                                                                                                                                         RUA DOS SONHOS                                                                                      
0000000002040120211034200564281944095100000000000JOSE DA SILVA                                                                                                                                         RUA DOS SONHOS                                                                                      
0000000002040120211034200564281944095100000000000JOSE DA SILVA                                                                                                                                         RUA DOS SONHOS                                                                                      
0000000002040120211034200564281944095100000000000JOSE DA SILVA                                                                                                                                         RUA DOS SONHOS                                                                                      
0000000002040120211034200564281944095100000000000JOSE DA SILVA                                                                                                                                         RUA DOS SONHOS                                                                                      
0000000002040120211034200564281944095100000000000JOSE DA SILVA                                                                                                                                         RUA DOS SONHOS                                                                                      
0000000002040120211034200564281944095100000000000JOSE DA SILVA                                                                                                                                         RUA DOS SONHOS                                                                                      
0000000002040120211034200564281944095100000000000JOSE DA SILVA                                                                                                                                         RUA DOS SONHOS                                                                                      
0000000002040120211034200564281944095100000000000JOSE DA SILVA                                                                                                                                         RUA DOS SONHOS                                                                                      
0000000002040120211034200564281944095100000000000JOSE DA SILVA                                                                                                                                         RUA DOS SONHOS                                                                                      
0000000002040120211034200564281944095100000000000JOSE DA SILVA                                                                                                                                         RUA DOS SONHOS                                                                                      
0000000002040120211034200564281944095100000000000JOSE DA SILVA                                                                                                                                         RUA DOS SONHOS                                                                                      
0000000002040120211034200564281944095100000000000JOSE DA SILVA                                                                                                                                         RUA DOS SONHOS                                                                                      
0000000002040120211034200564281944095100000000000JOSE DA SILVA                                                                                                                                         RUA DOS SONHOS                                                                                      
0000000002040120211034200564281944095100000000000JOSE DA SILVA                                                                                                                                         RUA DOS SONHOS                                                                                      
0000000002040120211034200564281944095100000000000JOSE DA SILVA                                                                                                                                         RUA DOS SONHOS                                                                                      
0000000002040120211034200564281944095100000000000JOSE DA SILVA                                                                                                                                         RUA DOS SONHOS                                                                                      
0000000002040120211034200564281944095100000000000JOSE DA SILVA                                                                                                                                         RUA DOS SONHOS                                                                                      
0000000002040120211034200564281944095100000000000JOSE DA SILVA                                                                                                                                         RUA DOS SONHOS                                                                                      
0000000002040120211034200564281944095100000000000JOSE DA SILVA                                                                                                                                         RUA DOS SONHOS                                                                                      
0000000002040120211034200564281944095100000000000JOSE DA SILVA                                                                                                                                         RUA DOS SONHOS                                                                                      
0000000002040120211034200564281944095100000000000JOSE DA SILVA                                                                                                                                         RUA DOS SONHOS                                                                                      
0000000002040120211034200564281944095100000000000JOSE DA SILVA                                                                                                                                         RUA DOS SONHOS                                                                                      
0000000002040120211034200564281944095100000000000JOSE DA SILVA                                                                                                                                         RUA DOS SONHOS                                                                                      
0000000002040120211034200564281944095100000000000JOSE DA SILVA                                                                                                                                         RUA DOS SONHOS                                                                                      
0000000002040120211034200564281944095100000000000JOSE DA SILVA                                                                                                                                         RUA DOS SONHOS                                                                                      
0000000002040120211034200564281944095100000000000JOSE DA SILVA                                                                                                                                         RUA DOS SONHOS                                                                                      
0000000002040120211034200564281944095100000000000JOSE DA SILVA                                                                                                                                         RUA DOS SONHOS                                                                                      
0000000002040120211034200564281944095100000000000JOSE DA SILVA                                                                                                                                         RUA DOS SONHOS                                                                                      
0000000002040120211034200564281944095100000000000JOSE DA SILVA                                                                                                                                         RUA DOS SONHOS                                                                                      
0000000002040120211034200564281944095100000000000JOSE DA SILVA                                                                                                                                         RUA DOS SONHOS                                                                                      
0000000002040120211034200564281944095100000000000JOSE DA SILVA                                                                                                                                         RUA DOS SONHOS                                                                                      
0000000002040120211034200564281944095100000000000JOSE DA SILVA                                                                                                                                         RUA DOS SONHOS                                                                                      
0000000002040120211034200564281944095100000000000JOSE DA SILVA                                                                                                                                         RUA DOS SONHOS                                                                                      
0000000002040120211034200564281944095100000000000JOSE DA SILVA                                                                                                                                         RUA DOS SONHOS                                                                                      
0000000002040120211034200564281944095100000000000JOSE DA SILVA                                                                                                                                         RUA DOS SONHOS                                                                                      
0000000002040120211034200564281944095100000000000JOSE DA SILVA                                                                                                                                         RUA DOS SONHOS                                                                                      
0000000002040120211034200564281944095100000000000JOSE DA SILVA                                                                                                                                         RUA DOS SONHOS                                                                                      
0000000002040120211034200564281944095100000000000JOSE DA SILVA                                                                                                                                         RUA DOS SONHOS                                                                                      
0000000002040120211034200564281944095100000000000JOSE DA SILVA                                                                                                                                         RUA DOS SONHOS                                                                                      
0000000002040120211034200564281944095100000000000JOSE DA SILVA                                                                                                                                         RUA DOS SONHOS                                                                                      
0000000002040120211034200564281944095100000000000JOSE DA SILVA                                                                                                                                         RUA DOS SONHOS                                                                                      
0000000002040120211034200564281944095100000000000JOSE DA SILVA                                                                                                                                         RUA DOS SONHOS                                                                                      
0000000002040120211034200564281944095100000000000JOSE DA SILVA                                                                                                                                         RUA DOS SONHOS                                                                                      
0000000002040120211034200564281944095100000000000JOSE DA SILVA                                                                                                                                         RUA DOS SONHOS                                                                                      
0000000002040120211034200564281944095100000000000JOSE DA SILVA                                                                                                                                         RUA DOS SONHOS                                                                                      
0000000002040120211034200564281944095100000000000JOSE DA SILVA                                                                                                                                         RUA DOS SONHOS                                                                                      
0000000002040120211034200564281944095100000000000JOSE DA SILVA                                                                                                                                         RUA DOS SONHOS                                                                                      
0000000002040120211034200564281944095100000000000JOSE DA SILVA                                                                                                                                         RUA DOS SONHOS                                                                                      
0000000002040120211034200564281944095100000000000JOSE DA SILVA                                                                                                                                         RUA DOS SONHOS                                                                                      
0000000002040120211034200564281944095100000000000JOSE DA SILVA                                                                                                                                         RUA DOS SONHOS                                                                                      
0000000002040120211034200564281944095100000000000JOSE DA SILVA                                                                                                                                         RUA DOS SONHOS                                                                                      
0000000002040120211034200564281944095100000000000JOSE DA SILVA                                                                                                                                         RUA DOS SONHOS                                                                                      
0000000002040120211034200564281944095100000000000JOSE DA SILVA                                                                                                                                         RUA DOS SONHOS                                                                                      
0000000002040120211034200564281944095100000000000JOSE DA SILVA                                                                                                                                         RUA DOS SONHOS                                                                                      
0000000002040120211034200564281944095100000000000JOSE DA SILVA                                                                                                                                         RUA DOS SONHOS                                                                                      
0000000002040120211034200564281944095100000000000JOSE DA SILVA                                                                                                                                         RUA DOS SONHOS                                                                                      
0000000002040120211034200564281944095100000000000JOSE DA SILVA                                                                                                                                         RUA DOS SONHOS                                                                                      
0000000002040120211034200564281944095100000000000JOSE DA SILVA                                                                                                                                         RUA DOS SONHOS                                                                                      
0000000002040120211034200564281944095100000000000JOSE DA SILVA                                                                                                                                         RUA DOS SONHOS                                                                                      
0000000002040120211034200564281944095100000000000JOSE DA SILVA                                                                                                                                         RUA DOS SONHOS                                                                                      
0000000002040120211034200564281944095100000000000JOSE DA SILVA                                                                                                                                         RUA DOS SONHOS                                                                                      
0000000002040120211034200564281944095100000000000JOSE DA SILVA                                                                                                                                         RUA DOS SONHOS                                                                                      
0000000002040120211034200564281944095100000000000JOSE DA SILVA                                                                                                                                         RUA DOS SONHOS                                                                                      
0000000002040120211034200564281944095100000000000JOSE DA SILVA                                                                                                                                         RUA DOS SONHOS                                                                                      
0000000002040120211034200564281944095100000000000JOSE DA SILVA                                                                                                                                         RUA DOS SONHOS                                                                                      
0000000002040120211034200564281944095100000000000JOSE DA SILVA                                                                                                                                         RUA DOS SONHOS                                                                                      
0000000002040120211034200564281944095100000000000JOSE DA SILVA                                                                                                                                         RUA DOS SONHOS                                                                                      
0000000002040120211034200564281944095100000000000JOSE DA SILVA                                                                                                                                         RUA DOS SONHOS                                                                                      
0000000002040120211034200564281944095100000000000JOSE DA SILVA                                                                                                                                         RUA DOS SONHOS                                                                                      
0000000002040120211034200564281944095100000000000JOSE DA SILVA                                                                                                                                         RUA DOS SONHOS                                                                                      
0000000002040120211034200564281944095100000000000JOSE DA SILVA                                                                                                                                         RUA DOS SONHOS                                                                                      
0000000002040120211034200564281944095100000000000JOSE DA SILVA                                                                                                                                         RUA DOS SONHOS                                                                                      
0000000002040120211034200564281944095100000000000JOSE DA SILVA                                                                                                                                         RUA DOS SONHOS                                                                                      
0000000002040120211034200564281944095100000000000JOSE DA SILVA                                                                                                                                         RUA DOS SONHOS                                                                                      
0000000002040120211034200564281944095100000000000JOSE DA SILVA                                                                                                                                         RUA DOS SONHOS                                                                                      
0000000002040120211034200564281944095100000000000JOSE DA SILVA                                                                                                                                         RUA DOS SONHOS                                                                                      
0000000002040120211034200564281944095100000000000JOSE DA SILVA                                                                                                                                         RUA DOS SONHOS                                                                                      
0000000002040120211034200564281944095100000000000JOSE DA SILVA                                                                                                                                         RUA DOS SONHOS                                                                                      
0000000002040120211034200564281944095100000000000JOSE DA SILVA                                                                                                                                         RUA DOS SONHOS                                                                                      
0000000002040120211034200564281944095100000000000JOSE DA SILVA                                                                                                                                         RUA DOS SONHOS                                                                                      
0000000002040120211034200564281944095100000000000JOSE DA SILVA                                                                                                                                         RUA DOS SONHOS                                                                                      
0000000002040120211034200564281944095100000000000JOSE DA SILVA                                                                                                                                         RUA DOS SONHOS                                                                                      
0000000002040120211034200564281944095100000000000JOSE DA SILVA                                                                                                                                         RUA DOS SONHOS                                                                                      
0000000002040120211034200564281944095100000000000JOSE DA SILVA                                                                                                                                         RUA DOS SONHOS                                                                                      
0000000002040120211034200564281944095100000000000JOSE DA SILVA                                                                                                                                         RUA DOS SONHOS                                                                                      
0000000002040120211034200564281944095100000000000JOSE DA SILVA                                                                                                                                         RUA DOS SONHOS                                                                                      
0000000002040120211034200564281944095100000000000JOSE DA SILVA                                                                                                                                         RUA DOS SONHOS                                                                                      
0000000002040120211034200564281944095100000000000JOSE DA SILVA                                                                                                                                         RUA DOS SONHOS                                                                                      
0000000002040120211034200564281944095100000000000JOSE DA SILVA                                                                                                                                         RUA DOS SONHOS                                                                                      
0000000002040120211034200564281944095100000000000JOSE DA SILVA                                                                                                                                         RUA DOS SONHOS                                                                                      
0000000002040120211034200564281944095100000000000JOSE DA SILVA                                                                                                                                         RUA DOS SONHOS                                                                                      
0000000002040120211034200564281944095100000000000JOSE DA SILVA                                                                                                                                         RUA DOS SONHOS                                                                                      
0000000002040120211034200564281944095100000000000JOSE DA SILVA                                                                                                                                         RUA DOS SONHOS                                                                                      
0000000002040120211034200564281944095100000000000JOSE DA SILVA                                                                                                                                         RUA DOS SONHOS                                                                                      
0000000002040120211034200564281944095100000000000JOSE DA SILVA                                                                                                                                         RUA DOS SONHOS                                                                                      
0000000002040120211034200564281944095100000000000JOSE DA SILVA                                                                                                                                         RUA DOS SONHOS                                                                                      
0000000002040120211034200564281944095100000000000JOSE DA SILVA                                                                                                                                         RUA DOS SONHOS                                                                                      
0000000002040120211034200564281944095100000000000JOSE DA SILVA                                                                                                                                         RUA DOS SONHOS                                                                                      
0000000002040120211034200564281944095100000000000JOSE DA SILVA                                                                                                                                         RUA DOS SONHOS                                                                                      
0000000002040120211034200564281944095100000000000JOSE DA SILVA                                                                                                                                         RUA DOS SONHOS                                                                                      
0000000002040120211034200564281944095100000000000JOSE DA SILVA                                                                                                                                         RUA DOS SONHOS                                                                                      
0000000002040120211034200564281944095100000000000JOSE DA SILVA                                                                                                                                         RUA DOS SONHOS                                                                                      
0000000002040120211034200564281944095100000000000JOSE DA SILVA                                                                                                                                         RUA DOS SONHOS                                                                                      
0000000002040120211034200564281944095100000000000JOSE DA SILVA                                                                                                                                         RUA DOS SONHOS                                                                                      
0000000002040120211034200564281944095100000000000JOSE DA SILVA                                                                                                                                         RUA DOS SONHOS                                                                                      
0000000002040120211034200564281944095100000000000JOSE DA SILVA                                                                                                                                         RUA DOS SONHOS                                                                                      
0000000002040120211034200564281944095100000000000JOSE DA SILVA                                                                                                                                         RUA DOS SONHOS                                                                                      
0000000002040120211034200564281944095100000000000JOSE DA SILVA                                                                                                                                         RUA DOS SONHOS                                                                                      
0000000002040120211034200564281944095100000000000JOSE DA SILVA                                                                                                                                         RUA DOS SONHOS                                                                                      
0000000002040120211034200564281944095100000000000JOSE DA SILVA                                                                                                                                         RUA DOS SONHOS                                                                                      
0000000002040120211034200564281944095100000000000JOSE DA SILVA                                                                                                                                         RUA DOS SONHOS                                                                                      
0000000002040120211034200564281944095100000000000JOSE DA SILVA                                                                                                                                         RUA DOS SONHOS                                                                                      
0000000002040120211034200564281944095100000000000JOSE DA SILVA                                                                                                                                         RUA DOS SONHOS                                                                                      
0000000002040120211034200564281944095100000000000JOSE DA SILVA                                                                                                                                         RUA DOS SONHOS                                                                                      
0000000002040120211034200564281944095100000000000JOSE DA SILVA                                                                                                                                         RUA DOS SONHOS                                                                                      
0000000002040120211034200564281944095100000000000JOSE DA SILVA                                                                                                                                         RUA DOS SONHOS                                                                                      
0000000002040120211034200564281944095100000000000JOSE DA SILVA                                                                                                                                         RUA DOS SONHOS                                                                                      
0000000002040120211034200564281944095100000000000JOSE DA SILVA                                                                                                                                         RUA DOS SONHOS                                                                                      
0000000002040120211034200564281944095100000000000JOSE DA SILVA                                                                                                                                         RUA DOS SONHOS                                                                                      
0000000002040120211034200564281944095100000000000JOSE DA SILVA                                                                                                                                         RUA DOS SONHOS                                                                                      
0000000002040120211034200564281944095100000000000JOSE DA SILVA                                                                                                                                         RUA DOS SONHOS                                                                                      
0000000002040120211034200564281944095100000000000JOSE DA SILVA                                                                                                                                         RUA DOS SONHOS                                                                                      
0000000002040120211034200564281944095100000000000JOSE DA SILVA                                                                                                                                         RUA DOS SONHOS                                                                                      
0000000002040120211034200564281944095100000000000JOSE DA SILVA                                                                                                                                         RUA DOS SONHOS                                                                                      
0000000002040120211034200564281944095100000000000JOSE DA SILVA                                                                                                                                         RUA DOS SONHOS                                                                                      
0000000002040120211034200564281944095100000000000JOSE DA SILVA                                                                                                                                         RUA DOS SONHOS                                                                                      
0000000002040120211034200564281944095100000000000JOSE DA SILVA                                                                                                                                         RUA DOS SONHOS                                                                                      
0000000002040120211034200564281944095100000000000JOSE DA SILVA                                                                                                                                         RUA DOS SONHOS                                                                                      
0000000002040120211034200564281944095100000000000JOSE DA SILVA                                                                                                                                         RUA DOS SONHOS                                                                                      
0000000002040120211034200564281944095100000000000JOSE DA SILVA                                                                                                                                         RUA DOS SONHOS                                                                                      
0000000002040120211034200564281944095100000000000JOSE DA SILVA                                                                                                                                         RUA DOS SONHOS                                                                                      
0000000002040120211034200564281944095100000000000JOSE DA SILVA                                                                                                                                         RUA DOS SONHOS                                                                                      
