00101241E0440032 0122345670001860                   0000000           00NOME EMPRESA LOTE                                                     00000000000000000000000000000  00000                                                              
0000011300001E   0000000000000000                   00000000000000000000NOME EMPRESA LOTE                   0  000                   0000000000000000000000000000000000000000   0                        0                                      
0000020300001E   0000000000000000                   00000000000000000000NOME EMPRESA LOTE                   0  000                   0000000000000000000000000000000000000000   0                        0                                      
0000021300001E   0000000000000000                   00000000000000000000NOME EMPRESA LOTE                   0  000                   0000000000000000000000000000000000000000   0                        0                                      
0000022300001E   0000000000000000                   00000000000000000000NOME EMPRESA LOTE                   0  000                   0000000000000000000000000000000000000000   0                        0                                      
0000023300001E   0000000000000000                   00000000000000000000NOME EMPRESA LOTE                   0  000                   0000000000000000000000000000000000000000   0                        0                                      
0000024300001E   0000000000000000                   00000000000000000000NOME EMPRESA LOTE                   0  000                   0000000000000000000000000000000000000000   0                        0                                      
0000025300001E   0000000000000000                   00000000000000000000NOME EMPRESA LOTE                   0  000                   0000000000000000000000000000000000000000   0                        0                                      
0000026300001E   0000000000000000                   00000000000000000000NOME EMPRESA LOTE                   0  000                   0000000000000000000000000000000000000000   0                        0                                      
0000027300001E   0000000000000000                   00000000000000000000NOME EMPRESA LOTE                   0  000                   0000000000000000000000000000000000000000   0                        0                                      
0000028300001E   0000000000000000                   00000000000000000000NOME EMPRESA LOTE                   0  000                   0000000000000000000000000000000000000000   0                        0                                      
0000029300001E   0000000000000000                   00000000000000000000NOME EMPRESA LOTE                   0  000                   0000000000000000000000000000000000000000   0                        0                                      
0000012300001E   0000000000000000                   00000000000000000000NOME EMPRESA LOTE                   0  000                   0000000000000000000000000000000000000000   0                        0                                      
0000030300001E   0000000000000000                   00000000000000000000NOME EMPRESA LOTE                   0  000                   0000000000000000000000000000000000000000   0                        0                                      
0000031300001E   0000000000000000                   00000000000000000000NOME EMPRESA LOTE                   0  000                   0000000000000000000000000000000000000000   0                        0                                      
0000032300001E   0000000000000000                   00000000000000000000NOME EMPRESA LOTE                   0  000                   0000000000000000000000000000000000000000   0                        0                                      
0000033300001E   0000000000000000                   00000000000000000000NOME EMPRESA LOTE                   0  000                   0000000000000000000000000000000000000000   0                        0                                      
0000034300001E   0000000000000000                   00000000000000000000NOME EMPRESA LOTE                   0  000                   0000000000000000000000000000000000000000   0                        0                                      
0000035300001E   0000000000000000                   00000000000000000000NOME EMPRESA LOTE                   0  000                   0000000000000000000000000000000000000000   0                        0                                      
0000013300001E   0000000000000000                   00000000000000000000NOME EMPRESA LOTE                   0  000                   0000000000000000000000000000000000000000   0                        0                                      
0000014300001E   0000000000000000                   00000000000000000000NOME EMPRESA LOTE                   0  000                   0000000000000000000000000000000000000000   0                        0                                      
0000015300001E   0000000000000000                   00000000000000000000NOME EMPRESA LOTE                   0  000                   0000000000000000000000000000000000000000   0                        0                                      
0000016300001E   0000000000000000                   00000000000000000000NOME EMPRESA LOTE                   0  000                   0000000000000000000000000000000000000000   0                        0                                      
0000017300001E   0000000000000000                   00000000000000000000NOME EMPRESA LOTE                   0  000                   0000000000000000000000000000000000000000   0                        0                                      
0000018300001E   0000000000000000                   00000000000000000000NOME EMPRESA LOTE                   0  000                   0000000000000000000000000000000000000000   0                        0                                      
0000019300001E   0000000000000000                   00000000000000000000NOME EMPRESA LOTE                   0  000                   0000000000000000000000000000000000000000   0                        0                                      
00000005         0000000000000000                   00000000000000000000                0000000000000000000000000000000000000000000000000000000000000000000000000000000000000000000000000000000000000000000000000000                            
