341000000        0000000000000000              0    000000000000000000000                             BANCO ITAU                    0         201102020232426000000050000000                   0                                                
34100001E044005000000000000000000   0          0    000000000000000000000                             0                                       0110202000000000000000103000BRL000000                                                             
3410000300000E0  000000000000000               00000000000000000000000 0NOMEEMPRESADETESTE444444444444000000000000000000000000000000000110202001102020000000000000001030000000000000000000000000000000000000000000000000000000000000      888888
3410000300000E0  000000000000000               00000000000000000000000 0NOMEEMPRESADETESTE444444444444000000000000000000000000000000000110202001102020000000000000001030000000000000000000000000000000000000000000000000000000000000      888888
3410000300000E0  000000000000000               00000000000000000000000 0NOMEEMPRESADETESTE444444444444000000000000000000000000000000000110202001102020000000000000001030000000000000000000000000000000000000000000000000000000000000      888888
3410000300000E0  000000000000000               00000000000000000000000 0NOMEEMPRESADETESTE444444444444000000000000000000000000000000000110202001102020000000000000001030000000000000000000000000000000000000000000000000000000000000      888888
3410000300000E0  000000000000000               00000000000000000000000 0NOMEEMPRESADETESTE444444444444000000000000000000000000000000000110202001102020000000000000001030000000000000000000000000000000000000000000000000000000000000      888888
3410000300000E0  000000000000000               00000000000000000000000 0NOMEEMPRESADETESTE444444444444000000000000000000000000000000000110202001102020000000000000001030000000000000000000000000000000000000000000000000000000000000      888888
3410000300000E0  000000000000000               00000000000000000000000 0NOMEEMPRESADETESTE444444444444000000000000000000000000000000000110202001102020000000000000001030000000000000000000000000000000000000000000000000000000000000      888888
3410000300000E0  000000000000000               00000000000000000000000 0NOMEEMPRESADETESTE444444444444000000000000000000000000000000000110202001102020000000000000001030000000000000000000000000000000000000000000000000000000000000      888888
3410000300000E0  000000000000000               00000000000000000000000 0NOMEEMPRESADETESTE444444444444000000000000000000000000000000000110202001102020000000000000001030000000000000000000000000000000000000000000000000000000000000      888888
3410000300000E0  000000000000000               00000000000000000000000 0NOMEEMPRESADETESTE444444444444000000000000000000000000000000000110202001102020000000000000001030000000000000000000000000000000000000000000000000000000000000      888888
3410000300000E0  000000000000000               00000000000000000000000 0NOMEEMPRESADETESTE444444444444000000000000000000000000000000000110202001102020000000000000001030000000000000000000000000000000000000000000000000000000000000      888888
3410000300000E0  000000000000000               00000000000000000000000 0NOMEEMPRESADETESTE444444444444000000000000000000000000000000000110202001102020000000000000001030000000000000000000000000000000000000000000000000000000000000      888888
3410000300000E0  000000000000000               00000000000000000000000 0NOMEEMPRESADETESTE444444444444000000000000000000000000000000000110202001102020000000000000001030000000000000000000000000000000000000000000000000000000000000      888888
3410000300000E0  000000000000000               00000000000000000000000 0NOMEEMPRESADETESTE444444444444000000000000000000000000000000000110202001102020000000000000001030000000000000000000000000000000000000000000000000000000000000      888888
3410000300000E0  000000000000000               00000000000000000000000 0NOMEEMPRESADETESTE444444444444000000000000000000000000000000000110202001102020000000000000001030000000000000000000000000000000000000000000000000000000000000      888888
3410000300000E0  000000000000000               00000000000000000000000 0NOMEEMPRESADETESTE444444444444000000000000000000000000000000000110202001102020000000000000001030000000000000000000000000000000000000000000000000000000000000      888888
3410000300000E0  000000000000000               00000000000000000000000 0NOMEEMPRESADETESTE444444444444000000000000000000000000000000000110202001102020000000000000001030000000000000000000000000000000000000000000000000000000000000      888888
3410000300000E0  000000000000000               00000000000000000000000 0NOMEEMPRESADETESTE444444444444000000000000000000000000000000000110202001102020000000000000001030000000000000000000000000000000000000000000000000000000000000      888888
3410000300000E0  000000000000000               00000000000000000000000 0NOMEEMPRESADETESTE444444444444000000000000000000000000000000000110202001102020000000000000001030000000000000000000000000000000000000000000000000000000000000      888888
3410000300000E0  000000000000000               00000000000000000000000 0NOMEEMPRESADETESTE444444444444000000000000000000000000000000000110202001102020000000000000001030000000000000000000000000000000000000000000000000000000000000      888888
3410000300000E0  000000000000000               00000000000000000000000 0NOMEEMPRESADETESTE444444444444000000000000000000000000000000000110202001102020000000000000001030000000000000000000000000000000000000000000000000000000000000      888888
3410000300000E0  000000000000000               00000000000000000000000 0NOMEEMPRESADETESTE444444444444000000000000000000000000000000000110202001102020000000000000001030000000000000000000000000000000000000000000000000000000000000      888888
3410000300000E0  000000000000000               00000000000000000000000 0NOMEEMPRESADETESTE444444444444000000000000000000000000000000000110202001102020000000000000001030000000000000000000000000000000000000000000000000000000000000      888888
3410000300000E0  000000000000000               00000000000000000000000 0NOMEEMPRESADETESTE444444444444000000000000000000000000000000000110202001102020000000000000001030000000000000000000000000000000000000000000000000000000000000      888888
3410000300000E0  000000000000000               00000000000000000000000 0NOMEEMPRESADETESTE444444444444000000000000000000000000000000000110202001102020000000000000001030000000000000000000000000000000000000000000000000000000000000      888888
341000050        0000000000000000              0    000000000000000000000               0000000000000000000000000000000000000000000000000000000110202000000000000000103000000000000000000000000000000000000000000000000000000000000000          
341999990        0000000000000000000                                                                                                                                                                                                            
